{"abi":[{"type":"constructor","inputs":[],"stateMutability":"nonpayable"},{"type":"function","name":"MAX_SUPPLY","inputs":[],"outputs":[{"name":"","type":"uint256","internalType":"uint256"}],"stateMutability":"view"},{"type":"function","name":"allowance","inputs":[{"name":"owner","type":"address","internalType":"address"},{"name":"spender","type":"address","internalType":"address"}],"outputs":[{"name":"","type":"uint256","internalType":"uint256"}],"stateMutability":"view"},{"type":"function","name":"approve","inputs":[{"name":"spender","type":"address","internalType":"address"},{"name":"value","type":"uint256","internalType":"uint256"}],"outputs":[{"name":"","type":"bool","internalType":"bool"}],"stateMutability":"nonpayable"},{"type":"function","name":"balanceOf","inputs":[{"name":"account","type":"address","internalType":"address"}],"outputs":[{"name":"","type":"uint256","internalType":"uint256"}],"stateMutability":"view"},{"type":"function","name":"claim","inputs":[{"name":"cellIndex","type":"uint256","internalType":"uint256"}],"outputs":[{"name":"success","type":"bool","internalType":"bool"}],"stateMutability":"nonpayable"},{"type":"function","name":"claimedBy","inputs":[{"name":"","type":"uint256","internalType":"uint256"}],"outputs":[{"name":"","type":"address","internalType":"address"}],"stateMutability":"view"},{"type":"function","name":"decimals","inputs":[],"outputs":[{"name":"","type":"uint8","internalType":"uint8"}],"stateMutability":"view"},{"type":"function","name":"isClaimed","inputs":[{"name":"cellIndex","type":"uint256","internalType":"uint256"}],"outputs":[{"name":"","type":"bool","internalType":"bool"}],"stateMutability":"view"},{"type":"function","name":"name","inputs":[],"outputs":[{"name":"","type":"string","internalType":"string"}],"stateMutability":"view"},{"type":"function","name":"owner","inputs":[],"outputs":[{"name":"","type":"address","internalType":"address"}],"stateMutability":"view"},{"type":"function","name":"ownerClaim","inputs":[{"name":"to","type":"address","internalType":"address"},{"name":"cellIndex","type":"uint256","internalType":"uint256"}],"outputs":[],"stateMutability":"nonpayable"},{"type":"function","name":"renounceOwnership","inputs":[],"outputs":[],"stateMutability":"nonpayable"},{"type":"function","name":"symbol","inputs":[],"outputs":[{"name":"","type":"string","internalType":"string"}],"stateMutability":"view"},{"type":"function","name":"totalSupply","inputs":[],"outputs":[{"name":"","type":"uint256","internalType":"uint256"}],"stateMutability":"view"},{"type":"function","name":"transfer","inputs":[{"name":"to","type":"address","internalType":"address"},{"name":"value","type":"uint256","internalType":"uint256"}],"outputs":[{"name":"","type":"bool","internalType":"bool"}],"stateMutability":"nonpayable"},{"type":"function","name":"transferFrom","inputs":[{"name":"from","type":"address","internalType":"address"},{"name":"to","type":"address","internalType":"address"},{"name":"value","type":"uint256","internalType":"uint256"}],"outputs":[{"name":"","type":"bool","internalType":"bool"}],"stateMutability":"nonpayable"},{"type":"function","name":"transferOwnership","inputs":[{"name":"newOwner","type":"address","internalType":"address"}],"outputs":[],"stateMutability":"nonpayable"},{"type":"event","name":"Approval","inputs":[{"name":"owner","type":"address","indexed":true,"internalType":"address"},{"name":"spender","type":"address","indexed":true,"internalType":"address"},{"name":"value","type":"uint256","indexed":false,"internalType":"uint256"}],"anonymous":false},{"type":"event","name":"Claimed","inputs":[{"name":"claimer","type":"address","indexed":true,"internalType":"address"},{"name":"cellIndex","type":"uint256","indexed":true,"internalType":"uint256"}],"anonymous":false},{"type":"event","name":"OwnershipTransferred","inputs":[{"name":"previousOwner","type":"address","indexed":true,"internalType":"address"},{"name":"newOwner","type":"address","indexed":true,"internalType":"address"}],"anonymous":false},{"type":"event","name":"Transfer","inputs":[{"name":"from","type":"address","indexed":true,"internalType":"address"},{"name":"to","type":"address","indexed":true,"internalType":"address"},{"name":"value","type":"uint256","indexed":false,"internalType":"uint256"}],"anonymous":false},{"type":"error","name":"ERC20InsufficientAllowance","inputs":[{"name":"spender","type":"address","internalType":"address"},{"name":"allowance","type":"uint256","internalType":"uint256"},{"name":"needed","type":"uint256","internalType":"uint256"}]},{"type":"error","name":"ERC20InsufficientBalance","inputs":[{"name":"sender","type":"address","internalType":"address"},{"name":"balance","type":"uint256","internalType":"uint256"},{"name":"needed","type":"uint256","internalType":"uint256"}]},{"type":"error","name":"ERC20InvalidApprover","inputs":[{"name":"approver","type":"address","internalType":"address"}]},{"type":"error","name":"ERC20InvalidReceiver","inputs":[{"name":"receiver","type":"address","internalType":"address"}]},{"type":"error","name":"ERC20InvalidSender","inputs":[{"name":"sender","type":"address","internalType":"address"}]},{"type":"error","name":"ERC20InvalidSpender","inputs":[{"name":"spender","type":"address","internalType":"address"}]},{"type":"error","name":"OwnableInvalidOwner","inputs":[{"name":"owner","type":"address","internalType":"address"}]},{"type":"error","name":"OwnableUnauthorizedAccount","inputs":[{"name":"account","type":"address","internalType":"address"}]}],"bytecode":{"object":"0x60806040523480156200001157600080fd5b50336040518060400160405280601081526020016f26b4b63634b7b72130b9b2aa37b5b2b760811b8152506040518060400160405280600381526020016213509560ea1b8152508160039081620000699190620001b5565b506004620000788282620001b5565b5050506001600160a01b038116620000aa57604051631e4fbdf760e01b81526000600482015260240160405180910390fd5b620000b581620000bc565b5062000281565b600580546001600160a01b038381166001600160a01b0319831681179093556040519116919082907f8be0079c531659141344cd1fd0a4f28419497f9722a3daafe3b4186f6b6457e090600090a35050565b634e487b7160e01b600052604160045260246000fd5b600181811c908216806200013957607f821691505b6020821081036200015a57634e487b7160e01b600052602260045260246000fd5b50919050565b601f821115620001b0576000816000526020600020601f850160051c810160208610156200018b5750805b601f850160051c820191505b81811015620001ac5782815560010162000197565b5050505b505050565b81516001600160401b03811115620001d157620001d16200010e565b620001e981620001e2845462000124565b8462000160565b602080601f831160018114620002215760008415620002085750858301515b600019600386901b1c1916600185901b178555620001ac565b600085815260208120601f198616915b82811015620002525788860151825594840194600190910190840162000231565b5085821015620002715787850151600019600388901b60f8161c191681555b5050505050600190811b01905550565b610bab80620002916000396000f3fe608060405234801561001057600080fd5b506004361061010b5760003560e01c8063715018a6116100a25780639e34070f116100715780639e34070f1461022b578063a9059cbb14610256578063dd62ed3e14610269578063e6ec320e146102a2578063f2fde38b146102b557600080fd5b8063715018a6146101cb5780638da5cb5b146101d557806395d89b41146101fa5780639ca293ec1461020257600080fd5b8063313ce567116100de578063313ce5671461017657806332cb6b0c14610185578063379607f51461018f57806370a08231146101a257600080fd5b806306fdde0314610110578063095ea7b31461012e57806318160ddd1461015157806323b872dd14610163575b600080fd5b6101186102c8565b60405161012591906109db565b60405180910390f35b61014161013c366004610a46565b61035a565b6040519015158152602001610125565b6002545b604051908152602001610125565b610141610171366004610a70565b610374565b60405160008152602001610125565b610155620f424081565b61014161019d366004610aac565b610398565b6101556101b0366004610ac5565b6001600160a01b031660009081526020819052604090205490565b6101d36104ed565b005b6005546001600160a01b03165b6040516001600160a01b039091168152602001610125565b610118610501565b6101e2610210366004610aac565b6006602052600090815260409020546001600160a01b031681565b610141610239366004610aac565b6000908152600660205260409020546001600160a01b0316151590565b610141610264366004610a46565b610510565b610155610277366004610ae7565b6001600160a01b03918216600090815260016020908152604080832093909416825291909152205490565b6101d36102b0366004610a46565b61051e565b6101d36102c3366004610ac5565b6105fa565b6060600380546102d790610b1a565b80601f016020809104026020016040519081016040528092919081815260200182805461030390610b1a565b80156103505780601f1061032557610100808354040283529160200191610350565b820191906000526020600020905b81548152906001019060200180831161033357829003601f168201915b5050505050905090565b600033610368818585610638565b60019150505b92915050565b60003361038285828561064a565b61038d8585856106c8565b506001949350505050565b6000620f424082106103e65760405162461bcd60e51b8152602060048201526012602482015271696e646578206f7574206f662072616e676560701b60448201526064015b60405180910390fd5b6000828152600660205260409020546001600160a01b03161561043d5760405162461bcd60e51b815260206004820152600f60248201526e185b1c9958591e4818db185a5b5959608a1b60448201526064016103dd565b620f424061044a60025490565b1061048c5760405162461bcd60e51b815260206004820152601260248201527113585e081cdd5c1c1b1e481c995858da195960721b60448201526064016103dd565b600082815260066020526040902080546001600160a01b031916339081179091556104b8906001610727565b604051829033907fd8138f8a3f377c5259ca548e70e4c2de94f129f5a11036a15b69513cba2b426a90600090a3506001919050565b6104f561075d565b6104ff600061078a565b565b6060600480546102d790610b1a565b6000336103688185856106c8565b61052661075d565b620f4240811061056d5760405162461bcd60e51b8152602060048201526012602482015271696e646578206f7574206f662072616e676560701b60448201526064016103dd565b6000818152600660205260409020546001600160a01b0316156105c45760405162461bcd60e51b815260206004820152600f60248201526e185b1c9958591e4818db185a5b5959608a1b60448201526064016103dd565b600081815260066020526040902080546001600160a01b0319166001600160a01b0384161790556105f6826001610727565b5050565b61060261075d565b6001600160a01b03811661062c57604051631e4fbdf760e01b8152600060048201526024016103dd565b6106358161078a565b50565b61064583838360016107dc565b505050565b6001600160a01b0383811660009081526001602090815260408083209386168352929052205460001981146106c257818110156106b357604051637dc7a0d960e11b81526001600160a01b038416600482015260248101829052604481018390526064016103dd565b6106c2848484840360006107dc565b50505050565b6001600160a01b0383166106f257604051634b637e8f60e11b8152600060048201526024016103dd565b6001600160a01b03821661071c5760405163ec442f0560e01b8152600060048201526024016103dd565b6106458383836108b1565b6001600160a01b0382166107515760405163ec442f0560e01b8152600060048201526024016103dd565b6105f6600083836108b1565b6005546001600160a01b031633146104ff5760405163118cdaa760e01b81523360048201526024016103dd565b600580546001600160a01b038381166001600160a01b0319831681179093556040519116919082907f8be0079c531659141344cd1fd0a4f28419497f9722a3daafe3b4186f6b6457e090600090a35050565b6001600160a01b0384166108065760405163e602df0560e01b8152600060048201526024016103dd565b6001600160a01b03831661083057604051634a1406b160e11b8152600060048201526024016103dd565b6001600160a01b03808516600090815260016020908152604080832093871683529290522082905580156106c257826001600160a01b0316846001600160a01b03167f8c5be1e5ebec7d5bd14f71427d1e84f3dd0314c0f7b2291e5b200ac8c7c3b925846040516108a391815260200190565b60405180910390a350505050565b6001600160a01b0383166108dc5780600260008282546108d19190610b54565b9091555061094e9050565b6001600160a01b0383166000908152602081905260409020548181101561092f5760405163391434e360e21b81526001600160a01b038516600482015260248101829052604481018390526064016103dd565b6001600160a01b03841660009081526020819052604090209082900390555b6001600160a01b03821661096a57600280548290039055610989565b6001600160a01b03821660009081526020819052604090208054820190555b816001600160a01b0316836001600160a01b03167fddf252ad1be2c89b69c2b068fc378daa952ba7f163c4a11628f55a4df523b3ef836040516109ce91815260200190565b60405180910390a3505050565b60006020808352835180602085015260005b81811015610a09578581018301518582016040015282016109ed565b506000604082860101526040601f19601f8301168501019250505092915050565b80356001600160a01b0381168114610a4157600080fd5b919050565b60008060408385031215610a5957600080fd5b610a6283610a2a565b946020939093013593505050565b600080600060608486031215610a8557600080fd5b610a8e84610a2a565b9250610a9c60208501610a2a565b9150604084013590509250925092565b600060208284031215610abe57600080fd5b5035919050565b600060208284031215610ad757600080fd5b610ae082610a2a565b9392505050565b60008060408385031215610afa57600080fd5b610b0383610a2a565b9150610b1160208401610a2a565b90509250929050565b600181811c90821680610b2e57607f821691505b602082108103610b4e57634e487b7160e01b600052602260045260246000fd5b50919050565b8082018082111561036e57634e487b7160e01b600052601160045260246000fdfea26469706673582212205a31d24f8cc56ea03aef965ecd7b450af0cb1008130c9244732a8c475321d35964736f6c63430008180033","linkReferences":{}},"methodIdentifiers":{"MAX_SUPPLY()":"32cb6b0c","allowance(address,address)":"dd62ed3e","approve(address,uint256)":"095ea7b3","balanceOf(address)":"70a08231","claim(uint256)":"379607f5","claimedBy(uint256)":"9ca293ec","decimals()":"313ce567","isClaimed(uint256)":"9e34070f","name()":"06fdde03","owner()":"8da5cb5b","ownerClaim(address,uint256)":"e6ec320e","renounceOwnership()":"715018a6","symbol()":"95d89b41","totalSupply()":"18160ddd","transfer(address,uint256)":"a9059cbb","transferFrom(address,address,uint256)":"23b872dd","transferOwnership(address)":"f2fde38b"},"id":22}